:100000000C9486030C94A3030C94A3030C94A303F5
:100010000C94A3030C94A3030C94A3030C94A303C8
:100020000C94A3030C94A3030C94A3030C94150C3D
:100030000C94A3030C94E40B0C94A3030C94A3035F
:100040000C94A3030C94A3030C94A3030C94A30398
:100050000C94A3030001080006040001450000827F
:1000600000004000203C2F7072653E003E49503C2D
:100070002F613E3C62723E002F6366672F3F636EC6
:100080003D31003C6120687265663D2F002D2D20BA
:10009000436F6E666967202D2D3C62723E003E42C2
:1000A00061636B3C2F613E3C62723E003C612068A4
:1000B0007265663D2F003C7072653E003E42616392
:1000C0006B3C2F613E3C62723E003C612068726571
:1000D000663D2F003C7072653E00485454502F31ED
:1000E0002E302034303120556E617574686F72691E
:1000F0007A65640D0A436F6E74656E742D54797061
:10010000653A20746578742F68746D6C0D0A0D0A59
:100110003C68323E34303120556E617574686F72C0
:10012000697A65643C2F68323E003C68323E547206
:100130007920687474703A2F2F69702F7077642F4C
:100140003C2F68323E003C68313E323030204F4B0D
:100150003C2F68313E003C2F7072653E0A003C2FF8
:10016000666F726D3E003C696E70757420747970B4
:10017000653D7375626D69742076616C75653D537C
:100180006176653E003E3C62723E003C696E707571
:1001900074206E616D653D6569702076616C756572
:1001A0003D25642E25642E25642E25640044657645
:1001B0006963652049503A002F6366672F3E003C13
:1001C000666F726D20616374696F6E3D2F000A0067
:1001D0002D2D20436F6E666967202D2D002F6366DD
:1001E000672F3E4261636B3C2F613E3C62723E0072
:1001F0003C6120687265663D2F003C7072653E0070
:100200003C2F7072653E003E4261636B3C2F613E45
:100210003C62723E002F3F70743D003C612068726A
:1002200065663D2F003C7072653E003C2F70726524
:100230003E003E4261636B3C2F613E3C62723E0079
:100240002F3F70743D003C6120687265663D2F0051
:100250003C7072653E003C2F7072653E003C2F661C
:100260006F726D3E003C696E7075742074797065B4
:100270003D7375626D69742076616C75653D53617F
:1002800076653E003C2F62723E003C2F73656C65C4
:1002900063743E0076616C75653D313E313C2F6F75
:1002A0007074696F6E3E0073656C6563746564207D
:1002B000003C6F7074696F6E200076616C75653DEF
:1002C000303E303C2F6F7074696F6E3E0073656C0A
:1002D000656374656420003C6F7074696F6E200004
:1002E0003C73656C656374206E616D653D643E00B2
:1002F00044656661756C743A20003C62723E003E53
:10030000003C696E70757420747970653D6869642D
:1003100064656E206E616D653D706E2076616C75F2
:10032000653D002F3E003C666F726D20616374690D
:100330006F6E3D2F003A313E4F4E3C2F613E200004
:1003400026636D643D002F3F70743D003C61206862
:100350007265663D2F000A003A303E4F46463C2FFC
:10036000613E200026636D643D002F3F70743D00A8
:100370003C6120687265663D2F000A002F003C2F0B
:10038000666F726D3E003C696E7075742074797092
:10039000653D7375626D69742076616C75653D535A
:1003A0006176653E003C62723E003E003C696E70C4
:1003B0007574206D61786C656E6774683D323320AA
:1003C0006E616D653D61636D2076616C75653D00A4
:1003D0004163743A003C62723E003C2F73656C6569
:1003E00063743E0076616C75653D323E523C2F6F02
:1003F0007074696F6E3E0073656C6563746564202C
:10040000003C6F7074696F6E200076616C75653D9D
:10041000313E5026523C2F6F7074696F6E3E0073F0
:10042000656C656374656420003C6F7074696F6E01
:10043000200076616C75653D303E503C2F6F7074C6
:10044000696F6E3E0073656C656374656420003C83
:100450006F7074696F6E20003C73656C6563742007
:100460006E616D653D6D3E004D6F64653A003C62A6
:10047000723E003E003C696E707574207479706540
:100480003D68696464656E206E616D653D706E20C7
:1004900076616C75653D002F3E003C666F726D2085
:1004A000616374696F6E3D2F002F003E4261636B84
:1004B0003C2F613E3C62723E003C61206872656682
:1004C0003D2F003C7072653E003C2F7072653E0A05
:1004D000000A002D003C2F613E003E002F3F70744B
:1004E0003D003C6120687265663D2F000A002D00CA
:1004F0003C2F613E003E002F3F70743D003C612068
:10050000687265663D2F000A002D2D20506F7274B1
:1005100073202D2D000A002F6366672F3E436F6EF8
:100520006669673C2F613E003C6120687265663DEC
:100530002F000A003C6120687265663D2268747471
:10054000703A2F2F61622D6C6F672E7275223E619B
:10055000622D6C6F672E72753C2F613E003C62729B
:100560003E494F204D65676133322E20415049206E
:10057000627920003C7072653E003B003B004854AD
:1005800054502F312E3020323030204F4B0D0A4343
:100590006F6E74656E742D547970653A2074657849
:1005A000742F68746D6C0D0A507261676D613A202A
:1005B0006E6F2D63616368650D0A0D0A00FC06FA13
:1005C00006F806F606F406F206F006EE06EC06E974
:1005D00006E606E306E006DD06DA06D706D406D10F
:1005E00006CE06CB06C806C506C206BF06BC06B9BF
:1005F00006B606B306B006AD06AA06A706A406A16F
:10060000069E069B069806950692068F068C06891E
:10061000068606830680067D067A067706740671CE
:10062000066E066B066806650662065F065C06597E
:10063000065606530650064D064A0647064406412E
:100640000636360036350036340036330036320092
:100650003631003630003539003538003537003551
:10066000360035350035340035330035320035314C
:100670000035300034390034380034370034360067
:100680003435003434003433003432003431003433
:100690003000333900333800333700333600333518
:1006A0000033340033330033320033310033300051
:1006B00032390032380032370032360032350032FB
:1006C00034003233003232003231003230003139FE
:1006D0000031380031370031360031350031340017
:1006E000313300313200313100313000390038000F
:1006F00037003600350034003300320031004F46F9
:1007000046004F4E00494E004F55540011241FBE65
:10071000CFE5D8E0DEBFCDBF11E0A0E6B0E0E0E677
:10072000FAE302C005900D92AA31B107D9F725E08E
:10073000AAE1B1E001C01D92A639B207E1F70E941B
:100740002B140C942E1D0C940000C498962F6F71DE
:10075000862B8FB9779BFECF1FB8779BFECF99234F
:100760001CF41FB8779BFECFC49A8FB10895C4982C
:100770006F71862B8FB9779BFECF4FB9779BFECFDA
:10078000C49A0895FB01C4982AE32FB9779BFECF42
:10079000009761F0DF01A80FB91F1FB8779BFECF4C
:1007A0009FB19193EA17FB07C1F701C0DF011C92CB
:1007B000C49A0895FB01C4982AE72FB9779BFECF0E
:1007C00008C09F01280F391F91919FB9779BFECFD9
:1007D00003C00097B1F703C0E217F307A9F7C49A63
:1007E00008951F93CF93DF93182F1076C12FD0E079
:1007F00020911E0130E0C217D307B1F043E06FE152
:1008000080EA0E94B703AE015595479555954795E7
:100810005595479555954795559547956FE180E8CE
:100820000E94B70310931E01DF91CF911F9108958D
:10083000CF93C82F0E94F1036C2F80E00E94A50384
:10084000CF910895CF93DF93C82FD62F0E94F10345
:100850004D2F6C2F80E40E94B703DF91CF91089554
:10086000CF93682F84ED0E94220461E082ED0E9404
:1008700022048AEE0E94180480FDFBCF60E082ED26
:100880000E94220489ED0E941804C82F88ED0E945E
:1008900018042C2F30E0322F2227A901482BCA013F
:1008A000CF910895CF93DF93D62FC72F682F84ED74
:1008B0000E9422046D2F86ED0E9422046C2F87ED8A
:1008C0000E942204C8E203C08C2F8A95F1F78AEEB9
:1008D0000E94180480FDF8CFDF91CF910895682F12
:1008E000677085E70E9422040895CF93DF93EC019F
:1008F000BC9AC49A87B3806A87BBBE98C598C798CC
:1009000080E58DB9709A4FEF60E08FEF0E94B703DA
:1009100080E090E00197F1F710921D0110921C0108
:1009200060E088E00E94220460E089E00E942204E6
:1009300060E08CE00E94220460E08DE00E942204CE
:100940006FEF8AE00E94220469E18BE00E9422049A
:1009500060E084E00E9422046AE185E00E942204B3
:100960006FEF86E00E9422046FE187E00E9422047C
:1009700060EB88E30E9422046FE388E20E94220475
:1009800060E389E20E94220469EF80E30E9422046E
:1009900067EF81E30E9422046DE080EC0E94220454
:1009A00060E081EC0E94220442E362EC80E80E9455
:1009B000B70362E186EC0E9422046CE087EC0E949F
:1009C000220462E184EC0E9422046CED8AEC0E9415
:1009D000220465E08BEC0E942204688184EE0E9470
:1009E0002204698185EE0E9422046A8182EE0E94BF
:1009F00022046B8183EE0E9422046C8180EE0E94AF
:100A000022046D8181EE0E94220460E071E080E1A9
:100A10000E9452048FE10E94F10340EC6BE180E8F8
:100A20000E94B70344E06FE180E80E94B703DF91C2
:100A3000CF91089581E10E94300492FB882780F9CC
:100A400008950F931F93CF93DF93EC018B016FE118
:100A500080E00E94A50383FDFACF8CE10E94180478
:100A600081FF13C040E86FE180E80E94B70340E8CF
:100A70006FE180EA0E94B70342E06CE180EA0E94E5
:100A8000B70380E395E70197F1F760E082E00E9409
:100A900022046AE183E00E9422046C2F86E00E9417
:100AA0002204CE01965E692F87E00E94220440E076
:100AB00060E08AE70E94B703B801CE010E94DA0322
:100AC00048E06FE180E80E94B703DF91CF911F916A
:100AD0000F910895AF92BF92CF92DF92EF92FF9263
:100AE0000F931F93CF93DF936C017B0189E30E94E7
:100AF0001804882309F464C060911C01C0911D0191
:100B000080E00E9422046C2F81E00E94220460E0B9
:100B10008AE30E94A503C82F60E08AE30E94A50330
:100B2000D0E0D82BD0931D01C0931C0160E08AE374
:100B30000E94A503B82E60E08AE30E94A503A82EB8
:100B400060E08AE30E94A503082F60E08AE30E9428
:100B5000A50307FF11C081E0C81AD1080B2D10E0D2
:100B60001A2904501109C016D10608F48601B701EC
:100B7000C8010E94C20302C000E010E07E0181E0D3
:100B8000E81AF108E1148AE1F8064CF06FEF8CE006
:100B90000E94220469E18DE00E94220409C06C2FAA
:100BA00061508CE00E9422046F2D8DE00E9422048F
:100BB00040E46EE180E80E94B703802F912F02C0CD
:100BC00080E090E0DF91CF911F910F91FF90EF9027
:100BD000DF90CF90BF90AF900895CF92DF92EF92C9
:100BE000FF920F931F93CF93DF938C01DB01413072
:100BF00061F46B0188E0C81AD108E12CF12CE1E125
:100C0000CE0ED11CE11CF11C11C0423061F46B010D
:100C1000F8E0CF1AD108E12CF12C86E0C80ED11CE7
:100C2000E11CF11C03C0C12CD12C7601A230B1050E
:100C300008F1F80131969D01EF012197488150E0BC
:100C400060E070E0762F652F542F44278081482B79
:100C5000C40ED51EE61EF71E2250310932962230F0
:100C6000310550F7CD0102978E7F0296080F191FAC
:100C7000A170BB27AB2B69F0F801808190E0A0E068
:100C8000B0E0BA2FA92F982F8827C80ED91EEA1EC8
:100C9000FB1EA701662777274115510561057105E0
:100CA00071F0EE24FF24C40ED51EE61EF71EA70128
:100CB00066277727411551056105710591F7C60132
:100CC00080959095DF91CF911F910F91FF90EF90BC
:100CD000DF90CF900895009741F026E0FC01A2E458
:100CE000B1E001900D922A95E1F70895FC01328D53
:100CF000FB01208132130DC0DC015B9631964E96CC
:100D00003D912191321307C0A817B907C9F781E0B7
:100D1000089580E0089580E0089569327105C8F073
:100D2000FC0124852830B9F425852630B1F436A19C
:100D300020913E01321313C0B796AFE3B1E08A961B
:100D400031912D9132130DC0E817F907C9F781E0F1
:100D5000089580E0089580E0089580E0089580E09F
:100D6000089580E00895CF93DF93FC016A32710506
:100D7000E0F084858830D9F4858581111AC0968584
:100D80009534C1F4268D90913E01291313C0DF01E3
:100D90005F96CFE3D1E0B2962D91999129130AC0C5
:100DA000AE17BF07C9F781E005C080E003C080E04F
:100DB00001C080E0DF91CF910895CF93DF93FC01D4
:100DC000C2E4D1E09C012A5F3F4FD9018C9181930D
:100DD00089918D93E217F307C9F7DF91CF910895B9
:100DE000CF93DF93EC01188E198E80E48C8B1D8AD3
:100DF0008E8B40E064E170E0CE010E960E94ED051E
:100E0000988F898FDF91CF910895CF93DF939C01C5
:100E1000DC015E96CEE3D1E0FC017A96AC014E5D3A
:100E20005F4F90819D9399919193A417B507C9F74E
:100E3000C9010E94F006DF91CF9108959C01265DC3
:100E40003F4FFC01BE96D9018E91680F711D8291B2
:100E50006083442311F08C9301C01C92672F772785
:100E60002E173F0789F70895CF93DF93EC018CA1EC
:100E70009AA19CA38AA38DA19BA19DA38BA3CE0124
:100E80000E941E071AAA1BAA80E58EA7DF91CF91A8
:100E900008950F931F93CF93DF938C010E94DD067B
:100EA000E8011C8A82E08D8BD801909622E431E023
:100EB000F8017696A8014A5D5F4F80818D93E90124
:100EC00089919E018193A417B507B9F7AEE3B1E00C
:100ED000F8017C969801265D3F4F8081EA01899355
:100EE000AE018D918193C217D307B9F7B8018AE299
:100EF00090E00E942105DF91CF911F910F910895FD
:100F00000F931F93CF93DF93EC018B010E94DD06BB
:100F1000CE010E9405071AA29CA1983F18F02DA1AE
:100F20002F5F2DA3985F9CA3BE01C8010E942105DD
:100F3000DF91CF911F910F910895FC01208930E03E
:100F4000322F22278189282B2451310986A58295A9
:100F50008F70A90164E0869F401951091124CA01CC
:100F6000992314F480E090E008959A012F5F3F4F99
:100F7000FA014491442369F0FB01F696DC01AE0FBF
:100F8000BF1FF9014D936F5F7F4F4491319641111F
:100F9000F9CFCB010895222391F0A42FB52FAB01F7
:100FA0004A5C5F4FFC01E40FF51F922F3D91319396
:100FB0009150E1F72150620F711D6F5F7F4FCB01A0
:100FC0000895FA0101900020E9F731979F01241B51
:100FD000350B0E94CB070895FF920F931F93CF9379
:100FE000DF93EC018B01F42E0E94DD068F2D8061D2
:100FF0008FA784E0F81206C041E0B801CE010E943C
:1010000034070AC00115110511F401E010E041E0B8
:10101000B801CE010E943407188A88E2898BCE017C
:101020000E94050784E088AB19AA42E06CE170E0F9
:10103000CE014A960E94ED059AAB8BABBE0186E3CA
:1010400090E00E942105DF91CF911F910F91FF90B9
:1010500008950F931F93CF93DF93EC018B01CB0186
:101060008896988B898BCE010E94F0061AAA1BAA3B
:10107000B801645E7F4F42E0CE014A960E94ED05C2
:101080009AAB8BABBE01C801C6960E942105DF91C9
:10109000CF911F910F9108959C016115710551F039
:1010A000FB01AEE3B1E06C5F7F4F91919D93E6173A
:1010B000F707D9F72115310519F0C9010E946B0610
:1010C000089590932101809361000895CF93DF9359
:1010D000EC010E94DD06188A8CE2898BCE010E9409
:1010E000050782E18FA740E061E070E0CE010E9439
:1010F00034071EA21FA28091650088A719A68D5FE4
:101100008093650082E08EAB84E08FAB85E088AF92
:1011100019AE80E68EA78AE088AB19AA42E060E2A9
:1011200070E0CE014A960E94ED059AAB8BABBE01F2
:101130008AE390E00E942105DF91CF9108950F93FB
:101140001F93CF93DF93EC018B0160911F0170918E
:10115000200140E00E94EC0789E18FA7B801CE0191
:101160000E942908DF91CF911F910F910895DC0112
:10117000FA016115710541F0680F791F84918D9313
:101180003196A617B707D1F70895CF92DF92EF9265
:10119000FF920F931F93CF93DF936C0180913E01D9
:1011A000882309F445C0F60102E411E096012A5FA4
:1011B0003F4FE901D8014FEF41939D919993E21779
:1011C000F307D1F77B0188E0E6018C8786E08D8705
:1011D00044E550E068E070E0C6010E960E94B70852
:1011E000C6014696F601B096D6019696E801299179
:1011F0008E01EC012993CE011192EA17FB07B1F79A
:10120000F7012EE331E0C6014C96D4E0ED0EF11C5F
:1012100041914D93E90149919E01EC014993CE0121
:10122000EE15FF05A9F7B6018AE290E00E942105BC
:10123000DF91CF911F910F91FF90EF90DF90CF90B2
:101240000895AF92BF92DF92EF92FF920F931F9398
:10125000CF93DF93EC01F62EE42ED52EE1E3F1E0FF
:101260009C0182E491E05E0146E0A40EB11C07E31C
:1012700011E04191D9014D939D01DC017D91CD019A
:10128000D5017D935D01E017F10799F788E08C8720
:101290001D864CE550E069E070E0CE010E960E949C
:1012A000B7088CE2898B809160008B8B8F5F809375
:1012B000600086E08F8BE7E3F1E09E01225E3F4F06
:1012C0008EE391E08E01065E1F4F58016BE371E0E3
:1012D0004191D9014D939D01DC014D91CD01D50185
:1012E0004D935D01E617F70799F7CE010E94F006CE
:1012F000DCA2EDA28BE08AA3FBA2FE01B696CE0192
:101300008E961192E817F907E1F78091650088A79A
:101310008D5F8093650080E68EA782E08FA793E0C3
:1013200098AB19AA1AAA1BAA1CAA1DAA8EAB94E0F4
:101330009FAB88AF8EEE89AF42E060E270E0C801FB
:101340000E94ED059AAB8BABBE018AE390E00E9450
:101350002105DF91CF911F910F91FF90EF90DF90CA
:10136000BF90AF900895DF92EF92FF920F931F937B
:10137000CF93DF938C01EB01209709F056C0809149
:101380002301893079F48091620090916300892B68
:10139000F9F40E941A05882329F064E271E0C8017B
:1013A0000E94C50880912301813091F40E941A05A2
:1013B000882371F064E271E0C8010E94C508809141
:1013C00023018860809323011092630010926200D1
:1013D00080916200909163000196909363008093E6
:1013E000620080913001813009F0A8C10E941A0585
:1013F000882309F4A6C182E08093300160916400E3
:101400006F5F6093640040912E0150912F016F71C6
:1014100080913B0120E2829FC0011124682BC8010A
:101420000E942109E12CF12CC0C10E948D06882365
:1014300071F1D80155968C91813019F4C8010E9440
:1014400049078091230183FF7FC1F801858982309C
:1014500009F07DC144E050E064E271E0C8014C96BF
:101460000E946219892B09F075C1A8014A5E5F4F7D
:10147000E091FF04F09100056091220184E291E087
:10148000099582E080932301E12CF12C8EC1BE01ED
:10149000C8010E94B306882309F45FC1D80157969A
:1014A0008C9157978130A9F492968C91883009F0ED
:1014B00057C1E0913C01F0913D01309719F0C8010E
:1014C0004A960995BE01C8010E948007E12CF12CC3
:1014D0006CC1C633D10508F446C1863009F046C157
:1014E000F80184A18B3009F0F0C01093290100931A
:1014F000280167E371E0C8010E947606882309F499
:1015000038C1D8019F96DC909F97D2FE17C0E0911A
:101510002C01F0912D01309759F095968C9120E097
:1015200030E040E050E063E0829586958770099551
:1015300086E080933001E12CF12C37C1C8010E9474
:101540009D077C01809130018230D9F59D2D9071ED
:101550008D2D8271823119F540E060E070E0C801A4
:101560000E94EC0788E1F80187A7E0912A01F09139
:101570002B01309741F0D80193968C9182958695F6
:101580008770099502C080E090E023E0209330014D
:10159000BC01C8010E942908E12CF12C06C181E0A0
:1015A00080933001911104C0B7016F5F7F4F02C07B
:1015B00060E070E044E0C8010E94EC07E12CF12CEF
:1015C000F4C0833009F03FC0E114F10409F4E6C02F
:1015D00084E080933001E0912C01F0912D0130974F
:1015E00009F456C0D8019E964C9142954F70B4E0D4
:1015F0004B9FA0011124CE0108974E5D5F4F8417C9
:10160000950708F4AC01C701840F951FC817D907C7
:1016100020F49E01241B350B01C09701D80195963B
:101620008C9160E08295869587700995882359F0A2
:1016300049E0B701C8010E94EC0785E080933001C2
:10164000E12CF12CB2C080913001853051F4F801C9
:1016500087A584FF91C086E080933001E12CF12CB6
:10166000A4C08630A9F4D8019F968C9184FD04C053
:10167000B7016F5F7F4F02C060E070E044E0C801D7
:101680000E94EC0787E080933001E12CF12C8DC0A3
:10169000F80187A580FF0DC0B7016F5F7F4F41E064
:1016A000C8010E94EC0785E080933001E12CF12C09
:1016B0007CC0E114F10409F462C040E0B701C80144
:1016C0000E94EC07E12CF12C70C09091210189134C
:1016D00059C095A180916100981357C0D7A4D1FE3D
:1016E00006C0C8010E946608E12CF12C5EC0D4FE41
:1016F0004FC0C8010E949D077C01909320018093F8
:101700001F01892B49F4D0FE50C040E060E070E03A
:10171000C8010E94EC0749C0F801E6A4E694E694EB
:10172000E694E694F4E0EF9E7001112422E2E20ECA
:10173000F11C2897CE15DF0570F137C0E12CF12C94
:1017400034C0E12CF12C31C0E12CF12C2EC0E12C65
:10175000F12C2BC0E12CF12C28C0E12CF12C25C060
:10176000E12CF12C22C0E12CF12C1FC0E12CF12C3A
:101770001CC0E12CF12C19C0E12CF12C16C0E12C7D
:10178000F12C13C0E12CF12C10C0E12CF12C0DC078
:10179000E12CF12C0AC0E12CF12C07C0D8019F9656
:1017A0008C9180FD79CFE12CF12CC701DF91CF9195
:1017B0001F910F91FF90EF90DF90089583E389B917
:1017C00010BC88E98AB908951F920F920FB60F9244
:1017D00011242F933F934F935F936F937F938F9336
:1017E0009F93AF93BF93EF93FF938CB1809390053A
:1017F00044E050E06BEF74E08AEF94E00E946F19D0
:10180000809190058093FE04FF91EF91BF91AF917D
:101810009F918F917F916F915F914F913F912F9108
:101820000F900FBE0F901F9018951F920F920FB63A
:101830000F9211248F939F93809192058F5F8093D5
:10184000920580912A058F5F80932A0590919205D9
:101850008091A100981780F010929205929A8FE3E0
:101860009CE90197F1F700C000008FE39CE9019724
:10187000F1F700C0000092989F918F910F900FBEDA
:101880000F901F901895E2E9F0E001900020E9F731
:101890003197AF0142595040BC0182E990E00E946B
:1018A000811921E0892B09F020E0822F08954EE76D
:1018B00055E060E070E08BE691E00E94B507089586
:1018C000833469F485E390E09093250580932405A3
:1018D00083E390E0909378058093770508958134B1
:1018E00069F48BE390E0909325058093240589E3C8
:1018F00090E090937805809377050895823469F499
:1019000088E390E0909325058093240586E390E09A
:1019100090937805809377050895843461F482E389
:1019200090E0909325058093240580E390E09093C8
:101930007805809377050895811113C0309149018E
:10194000E0912405F0912505208181E090E002C01E
:10195000880F991F3A95E2F78095909582238083AE
:101960000895813089F430914901E0912405F09186
:101970002505208181E090E002C0880F991F3A95EB
:10198000E2F7822B80830895823081F430914901FF
:10199000E0912405F0912505208181E090E002C0CE
:1019A000880F991F3A95E2F7822780830895DF9286
:1019B000EF92FF920F931F93CF93DF9390E0FC0180
:1019C000EA5CFA4F2081241719F0213009F06FC02A
:1019D000CDE4D5E02AE2FE0111922A95E9F727E14C
:1019E000289FB001299F700D11246050704047E17D
:1019F00050E0CE010E94841C888181508E3F08F007
:101A000056C062EA70E0CE010E945D19009709F4A9
:101A100045C0E0E0C1E0CE0FF0E0EE0FFF1FE45F55
:101A2000FA4F9183808362EA70E080E090E00E9448
:101A30005D19EC2F009771F731C064EA70E089916D
:101A400099910E945D19009729F10E9433198C0128
:101A500064EA70E080E090E00E945D190E94331912
:101A6000D82E0C30B8F0F801FF27EE0FFF1FE25B15
:101A7000FF4F0190F081E02D119110938F05CF0160
:101A80000E94331980934901812F0E94600C8D2D93
:101A90000E949C0CCE15DF0581F609C0CCE0D5E094
:101AA0000F2EF4E2EF2EF5E0FF2EF02DC6CFDF91E2
:101AB000CF911F910F91FF90EF90DF900895BF920B
:101AC000CF92DF92EF92FF920F931F93CF93DF930A
:101AD0000CE710E0C1E0D5E00F2EFCE0EF2EF5E0C2
:101AE000FF2EF02D0F2EF0E3BF2EF02D0F2EF1E381
:101AF000CF2EF02DD801ED91FD918D01D190D09296
:101B00008F05CF010E943319809349018D2D0E94CA
:101B1000600CE0917705F091780580812091490172
:101B200090E002C0959587952A95E2F780FD02C066
:101B3000C88201C0B8822196CE15DF05D9F606E627
:101B400010E0CBE2D5E00F2EF6E3EF2EF5E0FF2E0E
:101B5000F02D0F2EF0E3BF2EF02D0F2EF1E3CF2E40
:101B6000F02DD801ED91FD918D01D190D0928F058E
:101B7000CF010E943319809349018D2D0E94600C82
:101B8000E0917705F091780580812091490190E0FE
:101B900002C0959587952A95E2F780FF02C0C8821A
:101BA00001C0B8822196CE15DF05D9F6DF91CF911D
:101BB0001F910F91FF90EF90DF90CF90BF9008950D
:101BC000CF92DF92EF92FF920F931F93CF93DF9309
:101BD0007C010E94570CEC010E945F0D01E015E0B2
:101BE0000F2EFCE0CF2EF5E0DF2EF02DF8019191C5
:101BF0008F01913341F442E057E0BE01C7010E94DA
:101C0000B507EC0109C0903339F44EEF56E0BE0140
:101C1000C7010E94B507EC014CE755E0BE01C701C2
:101C20000E94B507EC010C151D0501F70F2EFBE214
:101C3000CF2EF5E0DF2EF02D10E0F60191916F012F
:101C4000913341F442E057E0BE01C7010E94B5075D
:101C5000EC0109C0903339F44EEF56E0BE01C701E4
:101C60000E94B507EC011A3038F44AE755E0BE018E
:101C7000C7010E94B507EC011F5F1B30F1F6CE01D2
:101C8000DF91CF911F910F91FF90EF90DF90CF9058
:101C90000895EF92FF921F93CF93DF937C01162F4D
:101CA0000E94570CEC010E945F0D1C3058F5E12F8B
:101CB000F0E0E050FB4F8081813341F442E057E097
:101CC000BE01C7010E94B507EC0124C0803311F5A5
:101CD0004EEF56E0BE01C7010E94B507EC011AC0E5
:101CE00042E057E0BE01C7010E94B507EC0112C0F7
:101CF000803381F44EEF56E0BE01C7010E94B50764
:101D0000EC0108C0E12FF0E0E15EFA4F8081813301
:101D100079F7E6CFCE01DF91CF911F91FF90EF9041
:101D20000895AF92BF92CF92DF92EF92FF921F93EE
:101D3000CF93DF9300D0CDB7DEB710E00F2EFAE4DB
:101D4000CF2EF1E0DF2EF02D44C0E12EF12CF70173
:101D5000E65BFE4F80818A33D9F5570182E0A81AED
:101D6000B108C501865B9E4F0E943319892B79F01B
:101D7000F501E65BFE4F80818983F701E75BFE4F4B
:101D800080818A83CE0101960E94331905C0C70164
:101D9000875B9E4F0E9433198C50E82FF0E0EE0FC6
:101DA000FF1FEA59FF4F0190F081E02DB190B092F2
:101DB0008F05CF010E943319809349018B2D0E941A
:101DC000600CC701855B9E4F0E9433190E949C0CDA
:101DD0001F5FF60101900020E9F73197EA54F140C6
:101DE000812F90E08E179F0708F4AFCF0F900F90D0
:101DF000DF91CF911F91FF90EF90DF90CF90BF9038
:101E0000AF900895AF92BF92CF92DF92EF92FF9280
:101E10000F931F93CF93DF93EC010E94570C44E77D
:101E200055E0BC01CE010E94B5074DE555E0BC016F
:101E3000CE010E94B50744E355E0BC01CE010E94EB
:101E4000B50742E355E0BC01CE010E94B50748E268
:101E500055E0BC01CE010E94B50742E950E0BC014B
:101E6000CE010E94E10747E155E0BC01CE010E948E
:101E7000B50745E155E0BC01CE010E94B50749E038
:101E800055E0BC01CE010E94B50747E055E0BC011A
:101E9000CE010E94B5075C010E945F0D0DEB15E0BD
:101EA0000F2EF1E0EF2EF5E0FF2EF02D0F2EFCE0CF
:101EB000CF2EF5E0DF2EF02D4DEF54E0B501CE0131
:101EC0000E94B50742E950E0BC01CE010E94E10743
:101ED00047EF54E0BC01CE010E94B507F8014591DF
:101EE0005491BC01CE010E94B50745EF54E0BC01FE
:101EF000CE010E94B50745E057E0BC01CE010E942B
:101F0000B507F80145915491BC01CE010E94B50777
:101F100040EF54E0BC01CE010E94B5074EEE54E004
:101F2000BC01CE010E94B507BC01F70191917F0170
:101F3000913339F442E057E0CE010E94B507BC016D
:101F400008C0903331F44EEF56E0CE010E94B50741
:101F5000BC014CEE54E0CE010E94B5075C010E5F5F
:101F60001F4FEC14FD0409F0A7CF03ED15E00F2E71
:101F7000FBE2EF2EF5E0FF2EF02D0F2EF9EECF2E27
:101F8000F5E0DF2EF02D42EE54E0B501CE010E94C7
:101F9000B50742E950E0BC01CE010E94E1074CEDDB
:101FA00054E0BC01CE010E94B507F801459154915F
:101FB000BC01CE010E94B5074AED54E0BC01CE0140
:101FC0000E94B50748E057E0BC01CE010E94B5076A
:101FD000F801769745915491BC01CE010E94B50756
:101FE00045ED54E0BC01CE010E94B50743ED54E03D
:101FF000BC01CE010E94B507BC01F70191917F01A0
:10200000913339F442E057E0CE010E94B507BC019C
:1020100008C0903331F44EEF56E0CE010E94B50770
:10202000BC0141ED54E0CE010E94B5075C010E5F9A
:102030001F4F0C151D0509F0A6CF49EC54E0BC015B
:10204000CE010E94B507DF91CF911F910F91FF90B4
:10205000EF90DF90CF90BF90AF900895CF92DF9236
:10206000EF92FF920F931F93CF93DF93EC010E94A7
:10207000570C43EC54E0BC01CE010E94B50749EB7C
:1020800054E0BC01CE010E94B50742E950E0BC011A
:10209000CE010E94E1074BEA54E0BC01CE010E9450
:1020A000B5077C010E945F0D8AE491E00E9433191C
:1020B0008C018C3008F0FFC045E057E0B701CE013D
:1020C0000E94B507112701501109F801EE0FFF1FFB
:1020D0009F0123543A4F7901F90145915491BC0174
:1020E000CE010E94B50749EA54E0BC01CE010E942E
:1020F000B507BC01F801EF5FFA4F9081913339F4D5
:1021000042E057E0CE010E94B507BC0108C0903301
:1021100031F44EEF56E0CE010E94B507BC014AE90A
:1021200054E0CE010E94B50742E950E0BC01CE0167
:102130000E94E10747E954E0BC01CE010E94B507C7
:1021400045E754E0BC01CE010E94B507F701459177
:102150005491BC01CE010E94B50743E754E0BC0195
:10216000CE010E94B5074EE654E0BC01CE010E94AC
:10217000B50748E654E0BC01CE010E94B50748E52A
:1021800054E0BC01CE010E94B5074FE454E0BC010D
:10219000CE010E94B507F801EA5CFA4F20812111B7
:1021A00006C045E454E0BC01CE010E94B50742E3FD
:1021B00054E0BC01CE010E94B50749E254E0BC01E5
:1021C000CE010E94B507F801EA5CFA4F2081213068
:1021D00031F44FE154E0BC01CE010E94B5074AE062
:1021E00054E0BC01CE010E94B50741E054E0BC01BF
:1021F000CE010E94B507F801EA5CFA4F2081223037
:1022000031F447EF53E0BC01CE010E94B50744EE24
:1022100053E0BC01CE010E94B5074AED53E0BC017A
:10222000CE010E94B50745ED53E0BC01CE010E94EE
:10223000B50740ED53E0BC01CE010E94B5074CEA62
:1022400053E0BC01CE010E94B5077C0187E1809F6D
:102250009001819F300D1124B9016050704047E119
:1022600050E08DE495E00E94841C90914D059150C2
:102270009E3F38F44DE455E0B701CE010E94E107DE
:102280007C014AEA53E0B701CE010E94B50745EA56
:1022900053E0BC01CE010E94B50746E853E0BC0103
:1022A000CE010E94B5074EE753E0BC01CE010E946B
:1022B000B507BC0133C148E057E0B701CE010E9429
:1022C000B507112778013CE0E31AF108F701EE0F9A
:1022D000FF1FE354FA4F45915491BC01CE010E9477
:1022E000B5074CE753E0BC01CE010E94B507BC0125
:1022F000F701E55DFA4F9081913309F040C042E06B
:1023000057E0CE010E94B5074AE753E0BC01CE0179
:102310000E94B50740E753E0BC01CE010E94B5071B
:1023200042E950E0BC01CE010E94E1074AE653E0D9
:10233000BC01CE010E94B507F801EE0FFF1F9F01FF
:1023400025543A4F6901F90145915491BC01CE01E0
:102350000E94B50744E653E0BC01CE010E94B507D8
:10236000F60145915491BC01CE010E94B50748E5A4
:1023700053E0BC01CE010E94B507BC0142C09033BE
:1023800009F03FC04EEF56E0CE010E94B50746E58A
:1023900053E0BC01CE010E94B5074CE453E0BC0100
:1023A000CE010E94B50742E950E0BC01CE010E9477
:1023B000E10746E453E0BC01CE010E94B507F801F5
:1023C000EE0FFF1F9F0125543A4F6901F901459116
:1023D0005491BC01CE010E94B50740E453E0BC011A
:1023E000CE010E94B507F60145915491BC01CE0182
:1023F0000E94B50745E353E0BC01CE010E94B5073A
:10240000BC0146E253E0CE010E94B50742E950E02C
:10241000BC01CE010E94E10743E253E0BC01CE01C2
:102420000E94B50741E053E0BC01CE010E94B50710
:10243000F801EE0FFF1FE554FA4F45915491BC018E
:10244000CE010E94B5074FEF52E0BC01CE010E94C1
:10245000B5074AEF52E0BC01CE010E94B50740EF3C
:1024600052E0BC01CE010E94B50740EE52E0BC0133
:10247000CE010E94B50747ED52E0BC01CE010E949B
:10248000B5078C014BE050E06DEF70E084E895E01B
:102490000E94841CF701EC57FA4F8081811107C01C
:1024A0004DEC52E0B801CE010E94B5078C014AEB19
:1024B00052E0B801CE010E94B50741EB52E0BC01E9
:1024C000CE010E94B507F701EC57FA4F2081213069
:1024D00031F447EA52E0BC01CE010E94B50744E95D
:1024E00052E0BC01CE010E94B5074AE852E0BC01AF
:1024F000CE010E94B50744E852E0BC01CE010E9423
:10250000B50745E652E0BC01CE010E94B5074DE596
:1025100052E0BC01CE010E94B507BC0146E552E085
:10252000CE010E94B507DF91CF911F910F91FF90CF
:10253000EF90DF90CF900895CF92DF92EF92FF92CD
:102540000F931F93CF93DF93EC01C62ED42E0E94DE
:10255000570C40E552E0BC01CE010E94B50746E4AD
:1025600052E0BC01CE010E94B50742E950E0BC0137
:10257000CE010E94E10740E452E0BC01CE010E947E
:10258000B5070C2D10E0F801EE0FFF1FE554FA4FD0
:1025900045915491BC01CE010E94B50742E352E03F
:1025A000BC01CE010E94B5077C018BE08C15F0F4D4
:1025B0000C5011096D2DC80183509F4F0E949E1C25
:1025C000000F111FF801EA59FF4F0190F081E02D33
:1025D000119110938F05CF010E9433198093490107
:1025E000812F0E94600C8D2D0E949C0C4BE252E0CA
:1025F000B701CE010E94B507DF91CF911F910F91D6
:10260000FF90EF90DF90CF900895CF92DF92EF92FE
:10261000FF920F931F93CF93DF93EC01F62EE42EDE
:102620000E94570C45E252E0BC01CE010E94B50762
:102630004BE152E0BC01CE010E94B50742E950E0F7
:10264000BC01CE010E94E10745E152E0BC01CE0190
:102650000E94B5070F2D10E001501109F801EE0F8F
:10266000FF1FE354FA4F45915491BC01CE010E94E3
:10267000B50747E052E0BC01CE010E94B5076C01EE
:102680008BE08F15A0F06E2DC801885F9E4F0E94D1
:102690009E1C87E1809FB001819F700D11246050C6
:1026A000704047E150E08DE495E00E94941C40E0CA
:1026B00052E0B601CE010E94B507DF91CF911F9184
:1026C0000F91FF90EF90DF90CF9008950F931F939D
:1026D000CF93DF93EC010E94570C4AEF51E0BC010D
:1026E000CE010E94B50740EF51E0BC01CE010E942F
:1026F000B50742E950E0BC01CE010E94E1074DED73
:1027000051E0BC01CE010E94B50740ED51E0BC0193
:10271000CE010E94B5074EEC51E0BC01CE010E94F3
:10272000B50720914A01213309F055C04FEB51E024
:10273000BC01CE010E94B50742E950E0BC01CE01C8
:102740000E94E10748EB51E0BC01CE010E94B507B1
:102750004DEA51E0BC01CE010E94B5078C01ECE9C5
:10276000F0E083811F928F9382811F928F938181EA
:102770001F928F9380811F928F932BE831E03F93BC
:102780002F931F928AE28F932DE435E03F932F938E
:102790000E94CD194DE455E0B801CE010E94E10739
:1027A00045E851E0BC01CE010E94B50746E651E084
:1027B000BC01CE010E94B5074EE551E0BC01CE013F
:1027C0000E94B5072DB73EB7225F3F4F0FB6F89472
:1027D0003EBF0FBE2DBF46E551E0BC01CE010E94B9
:1027E000B507DF91CF911F910F9108950F931F931C
:1027F000CF93DF93FC0120812F32F9F48C01EC019F
:1028000021964BE050E0BE0186EA90E00E948119DB
:10281000892BA9F0CE010E94430C882391F0FE0180
:10282000C801409603C0E817F90769F021912032EA
:1028300061F02F32C1F78DEF09C08FEF07C082E042
:1028400005C08FEF03C08DEF01C08EEFDF91CF91F8
:102850001F910F910895CF93DF9300D01F92CDB7B2
:10286000DEB74BE050E06DEF70E084E895E00E9449
:10287000841C4BE050E068E071E086E395E00E9444
:10288000841C81B3877081BB8A9A84B3807C84BBAB
:1028900084B3806C84BB87B3897F87BB87B389602F
:1028A00087BB8AB38FEF8ABB929885B38F7385BB42
:1028B00088B3867F88BB8BB31BBA0F2EF6E6AF2E8C
:1028C000F0E0BF2EF02D04E815E00F2EFCE7CF2E30
:1028D000F0E0DF2EF02D7801D501ED91FD915D0145
:1028E000119110938F05CF010E94331980934901F4
:1028F000812F0E94600CF70181917F010E949C0C46
:10290000AC14BD0449F70E94DE0B83B7856083BF1A
:1029100089B7816089BF12BE1092920580E08A95C6
:10292000F1F744E050E063E171E086E295E00E9457
:10293000841C809126058F3F99F0E6E2F5E04CE992
:1029400050E0A8E9B0E02AE235E0BD018191DA016A
:102950008D93AD01DB018D93BD01E217F307B1F754
:1029600086E990E00E94750482E00E946F0480E096
:102970008A95F1F766E774E084E10E9452046CE9FD
:1029800070E086E990E00E944C0880E590E00E94AB
:1029900061084BE050E061E075E089E795E00E9456
:1029A0008F1978940F2EF1E06F2EF5E07F2EF02D29
:1029B0000F2EF9E74F2EF5E05F2EF02D0F2EFCE0E5
:1029C000EF2EF5E0FF2EF02D2224239429820E9481
:1029D0005F0D0F2EF1E48F2EF5E09F2EF02DF2010A
:1029E000B3019201A401DB018D91BD019081891792
:1029F00019F08083DA011C9231964F5F5F4F6E159C
:102A00007F0589F790912A058091A000981790F191
:102A10007B826A8289013A803618EA81FB81919132
:102A2000FB83EA836801D8012C91921317C05401EB
:102A3000F4018081811112C0913329F440E0698151
:102A4000832D0E94D70CD6018C91803329F442E06B
:102A500060E0832D0E94D70CF50120820F5F1F4F8D
:102A6000FFEF8F1A9F0A8A819B818E159F0599F629
:102A700010922A056BE671E08EE893E00E946A05E9
:102A8000BC018BE691E00E94B3095C01009741F420
:102A90000E941A05882311F0C39A99CFC39897CF43
:102AA00044E050E0BC0165597E4F82EB90E00E940B
:102AB0008119892B59F00E94570C46E451E0BC0162
:102AC0008BE691E00E94B5075C01A9C1850101591F
:102AD0001E4F42E050E0B80187EB90E00E94811960
:102AE000892B49F44AE251E0B5018BE691E00E945E
:102AF000B5075C0194C1C8010E94F613D82E9FEF60
:102B000089130AC04AED50E060E070E08BE691E086
:102B10000E94B5075C0183C145E050E0B5016D58E6
:102B20007E4F8AEB90E00E948119892B09F0AEC09C
:102B300020EC30E049E16AE471E0C8010E945917D5
:102B4000882309F448C04AE250E06AE471E08DE469
:102B500095E00E948F1964EC70E08DE495E00E948E
:102B60005D19009709F093C168C14AE050E060E048
:102B700070E00E942118D8016D938D0164EC70E023
:102B800080E090E00E945D19B5E00A321B0709F46D
:102B900054C1009751F751C10E94570C44ED50E0C9
:102BA000BC018BE691E00E94B5074AEC50E0BC0105
:102BB0008BE691E00E94B50742E950E0BC018BE64C
:102BC00091E00E94E1074CEB50E0BC018BE691E004
:102BD0000E94B5075C0126EC30E049E16AE471E04F
:102BE000C5018D589E4F0E945917882331F08BE6FE
:102BF00091E00E9466135C0149C00E94570C46EBAD
:102C000050E0BC018BE691E00E94B5074CEA50E031
:102C1000BC018BE691E00E94B50742E950E0BC019F
:102C20008BE691E00E94E1074EE950E0BC018BE6A3
:102C300091E00E94B5074DE850E0BC018BE691E0C1
:102C40000E94B50743E850E0BC018BE691E00E948A
:102C5000B50742E950E0BC018BE691E00E94E10734
:102C600048E750E0BC018BE691E00E94B5074CE6D6
:102C700050E0BC018BE691E00E94B50745E650E0CC
:102C8000BC018BE691E00E94B5075C01850101590A
:102C90001E4F29EC30E049E16AE471E0C8010E946E
:102CA0005917882389F18AE491E00E943319C82ECC
:102CB0002CEC30E049E16AE471E0C8010E94591748
:102CC0008823E9F080914A01873679F480914B019D
:102CD000853659F480914C01843739F46C2D8BE69C
:102CE00091E00E94490E5C010FC08BE691E00E94CA
:102CF000910E8BE691E00E942E105C0105C08BE6E0
:102D000091E00E942E105C012CEC30E049E16AE475
:102D100071E0C50181599E4F0E9459178823B1F077
:102D200080914A01813671F480914B018C3651F4C7
:102D300080914C018C3631F48BE691E00E94E00DDD
:102D40005C0104C08BE691E00E94910E850101595F
:102D50001E4F20ED30E049E16AE471E0C8010E94B5
:102D60005917882309F453C08AE491E00E9433196B
:102D7000C82E2EEC30E049E16AE471E0C8010E94FF
:102D80005917882361F08AE491E00E943319482F93
:102D90006C2D8BE691E00E949C125C0138C025ED01
:102DA00030E049E16AE471E0C8010E9459178823C4
:102DB00071F18AE491E00E943319B82EEDE4F5E058
:102DC0002AE211922A95E9F723ED30E049E16DE41A
:102DD00075E0C8010E9459178DE495E00E94E6173E
:102DE0004B2D6C2D8BE691E00E9405135C014BE0AE
:102DF00050E068E071E086E395E00E94841C4AE2BE
:102E000050E060E070E08DE495E00E94841C8EEF5D
:102E1000D81205C08BE691E00E94020F5C01B5015B
:102E20008BE691E00E949F0880914801813009F073
:102E3000CECDE0E0F0E00995CACD44E050E063E19A
:102E400071E086E295E00E94941CF981F0934801BC
:102E500044E050E063E171E086E295E00E94841C6A
:102E6000A6E2B5E08C918F3F09F096CEECE9F0E058
:102E700080818C9380919D008093270580919E0096
:102E80008093280580919F008093290585CE4AE094
:102E900050E060E070E00E942118A6E2B5E06C937B
:102EA00064EC70E080E090E00E945D1907E215E0BC
:102EB00070CE1F93CF93DF93DC019C91892F8F7D80
:102EC00009F454C09A3009F453C0E22FF32F50E0B4
:102ED00011E08081981312C08181882321F03196FE
:102EE000ED01852F0FC0ED012196812F11969C9148
:102EF0009D3309F0852FE22FF32F04C0E22FF32F2B
:102F0000ED01852FDE0111969981992309F43FC0C7
:102F1000903281F19A3009F43EC08823D1F233C057
:102F200050E04150510914161506B4F4C62F1196FD
:102F3000E62FF72F91938E2F8C1BBF019D91292F88
:102F40002F7D89F09A3079F0963269F0282F30E0A1
:102F5000241735077CF307C080E005C080E003C07C
:102F600080E001C080E0FB01108218C080E016C044
:102F700080E014C0813091F380E010C09C919632C3
:102F800079F680E0F0CF8130C9F380E007C081306E
:102F900039F380E003C0813029F380E0DF91CF91E5
:102FA0001F91089590ED980F9A3060F09FE9980F67
:102FB000963010F4875508959FEB980F963020F4C3
:102FC00087530895892F089580E00895DF92EF9246
:102FD000FF920F931F93CF93DF937C01FC018081BD
:102FE000882329F1E7018B32A1F08532A9F487010A
:102FF0000E5F1F4FF70181810E94D217D82EF70173
:1030000082810E94D217F0E1DF9E90011124822B71
:1030100004C0870180E201C08701899378018FEFA6
:10302000E81AF80AF80181818111DDCF01C0E701BA
:103030001882DF91CF911F910F91FF90EF90DF9059
:103040000895A6E0B0E0E7E2F8E10C94E81C5C012A
:103050006B017A016115710519F0DB018D939C9369
:10306000E114F10429F0C7010297839708F0DCC04E
:103070003501BFEF6B1A7B0AF5011081812F90E0BB
:103080000E945419892B11F05301F2CF1D3249F4DB
:103090003501F2E06F0E711CD50111961C9101E013
:1030A00009C01B3231F43501B2E06B0E711CF50121
:1030B000118100E0E114F10409F4C4C0F0E1EF165D
:1030C000F10489F4103399F5D3018C918F7D883503
:1030D00009F0B2C011961C91B2E06B0E711C026037
:1030E00050E1E52EF12CEAE0EE16F10409F4B0C04F
:1030F000F0E1EF16F104D9F028E0E216F10451F402
:1031000038E0E32EF12C88248A94982CA82C4FE1E7
:10311000B42E13C06FEF7FEFCB0197010F2C000C83
:10312000440B550B0E94BB1C49015A0106C0882460
:103130008A94982CA82C2FE0B22E7E826D8260E0BB
:1031400020E030E0A90127010F2C000C6608770869
:103150002D803E80E0EDE10FEA3060F08FEB810FD3
:103160008A3110F4E9EC05C08FE9810F8A3190F5BE
:10317000E9EAE10F8E2F90E08E159F055CF56F3F19
:1031800009F182169306A406B506D8F0C301B20170
:103190000E94AB1C2E2F30E040E050E029833A83A0
:1031A0004B835C83260F371F481F591F89819A81E3
:1031B000AB81BC81281739074A075B0710F061E033
:1031C00001C06FEFED81FE813196FE83ED83D10169
:1031D0001C91BECFC114D10489F0662339F08D81D2
:1031E0009E810197F6019183808308C001FF06C08C
:1031F0008D819E810297D6018D939C9300FF07C01D
:1032000050954095309521953F4F4F4F5F4F67FF49
:1032100010C082E290E090939505809394056FEF43
:103220007FEF8FEF9FEF1BC060E070E080E090E0E9
:1032300016C0B901CA0113C010E3E114F10409F486
:103240005FCF51CF103309F43FCF9AE0E92EF12C34
:1032500089E9882E982CA82C89E1B82E6ECF269665
:10326000E2E10C94041DFC0188279927E894219140
:103270002032E9F3293010F02E30C8F32B3241F020
:103280002D3239F4689404C00E94C519820F911D33
:10329000219120532A30C0F31EF4909581959F4FC1
:1032A000089599278827089591110C945119803217
:1032B00019F089508550C8F708954AE151E00E94FD
:1032C0009E190895FB01DC0104C08D9101908019C5
:1032D00021F441505040C8F7881B990B0895681796
:1032E000790768F4FB01DC01E40FF51FA40FB51F9B
:1032F00002C002900E9241505040D8F708950C94AD
:10330000DA1BFB01DC014150504030F08D910190FF
:10331000801919F40020B9F7881B990B0895FB0157
:10332000DC014150504048F001900D920020C9F757
:1033300001C01D9241505040E0F70895FA01A1915B
:10334000B081009719F41097E1F0CD01DC01CD01B7
:103350000D90002011F4C00113C0FB012191222324
:1033600019F02015D9F7F3CFFB012191201519F49D
:103370001E92119606C02223C1F70D900020A1F7DE
:10338000D001FA01A193B08308957AE0979F902D20
:10339000879F802D910D11240895AEE0B0E0E3EDFC
:1033A000F9E10C94F61C0D891E898F89988D2EE009
:1033B0002C831A83098397FF02C080E090E801976D
:1033C0009E838D83AE01455E5F4F698D7A8DCE0100
:1033D00001960E94FD194D815E8157FD0AC02F8123
:1033E0003885421753070CF49A01F801E20FF31FD6
:1033F00010822E96E4E00C94121DACE0B0E0E3E005
:10340000FAE10C94E81C7C016B018A01FC01178233
:103410001682838181FFBDC1CE0101964C01F70167
:103420009381F60193FD859193FF81916F0188232C
:1034300009F4ABC1853239F493FD859193FF8191F5
:103440006F01853229F4B70190E00E94EE1BE7CFAF
:10345000512C312C20E02032A0F48B3269F030F472
:10346000803259F0833269F420612CC08D3239F0FA
:10347000803339F4216026C02260246023C0286094
:1034800021C027FD27C030ED380F3A3078F426FFF1
:1034900006C0FAE05F9E300D1124532E13C08AE05F
:1034A000389E300D1124332E20620CC08E3221F450
:1034B00026FD6BC1206406C08C3611F4206802C062
:1034C000883641F4F60193FD859193FF81916F0158
:1034D0008111C1CF982F9F7D9554933028F40C5FB4
:1034E0001F4FFFE3F9830DC0833631F0833771F04E
:1034F000833509F05BC022C0F801808189830E5FAB
:103500001F4F44244394512C540115C03801F2E05C
:103510006F0E711CF801A080B18026FF03C0652DDD
:1035200070E002C06FEF7FEFC5012C870E94E31BA4
:103530002C0183012C852F77222E17C03801F2E051
:103540006F0E711CF801A080B18026FF03C0652DAD
:1035500070E002C06FEF7FEFC5012C870E94CF1B88
:103560002C012C852068222E830123FC1BC0832D77
:1035700090E048165906B0F4B70180E290E00E944E
:10358000EE1B3A94F4CFF50127FC859127FE81913B
:103590005F01B70190E00E94EE1B31103A94F1E018
:1035A0004F1A51084114510471F7E5C0843611F0E7
:1035B000893639F5F80127FF07C060817181828162
:1035C00093810C5F1F4F08C060817181072E000C32
:1035D000880B990B0E5F1F4F2F76722E97FF09C035
:1035E00090958095709561957F4F8F4F9F4F206884
:1035F000722E2AE030E0A4010E94261CA82EA818F2
:1036000044C0853729F42F7EB22E2AE030E025C051
:10361000F22FF97FBF2E8F36C1F018F4883579F07C
:10362000B4C0803719F0883721F0AFC02F2F206148
:10363000B22EB4FE0DC08B2D8460B82E09C024FFBD
:103640000AC09F2F9660B92E06C028E030E005C062
:1036500020E130E002C020E132E0F801B7FE07C00F
:1036600060817181828193810C5F1F4F06C06081F0
:10367000718180E090E00E5F1F4FA4010E94261C24
:10368000A82EA818FB2DFF777F2E76FE0BC0372DB6
:103690003E7FA51450F474FE0AC072FC08C0372D9A
:1036A0003E7E05C0BA2C372D03C0BA2C01C0B52C04
:1036B00034FF0DC0FE01EA0DF11D8081803311F44D
:1036C000397E09C032FF06C0B394B39404C0832F7F
:1036D000867809F0B39433FD13C030FF06C05A2C2E
:1036E000B31418F4530C5B18B32CB31468F4B7017B
:1036F00080E290E03C870E94EE1BB3943C85F5CFBE
:10370000B31410F43B1801C0312C34FF12C0B701C0
:1037100080E390E03C870E94EE1B3C8532FF17C09F
:1037200031FD03C088E790E002C088E590E0B70172
:103730000CC0832F867859F031FF02C08BE201C0A4
:1037400080E237FD8DE2B70190E00E94EE1BA514E8
:1037500038F4B70180E390E00E94EE1B5A94F7CF53
:10376000AA94F401EA0DF11D8081B70190E00E9456
:10377000EE1BA110F5CF332009F451CEB70180E242
:1037800090E00E94EE1B3A94F6CFF7018681978174
:1037900002C08FEF9FEF2C96E2E10C94041DFC0118
:1037A0000590615070400110D8F7809590958E0F6C
:1037B0009F1F0895FB01DC0102C001900D92415052
:1037C0005040D8F70895FC016150704001900110FD
:1037D000D8F7809590958E0F9F1F08950F931F9394
:1037E000CF93DF93FB01238121FD03C08FEF9FEF78
:1037F00028C022FF16C04681578124813581421797
:10380000530744F4A081B1819D012F5F3F4F318365
:1038100020838C93268137812F5F3F4F3783268308
:1038200010C0EB01092F182F0084F185E02D0995B8
:10383000892BE1F68E819F8101969F838E83812F54
:10384000902FDF91CF911F910F910895FA01AA2730
:10385000283051F1203181F1E8946F936E7F6E5FD3
:103860007F4F8F4F9F4FAF4FB1E03ED0B4E03CD081
:10387000670F781F891F9A1FA11D680F791F8A1F64
:10388000911DA11D6A0F711D811D911DA11D20D0CB
:1038900009F468943F912AE0269F11243019305D85
:1038A0003193DEF6CF010895462F4770405D419376
:1038B000B3E00FD0C9F7F6CF462F4F70405D4A33C3
:1038C00018F0495D31FD4052419302D0A9F7EACF8B
:1038D000B4E0A6959795879577956795BA95C9F7BA
:1038E00000976105710508959B01AC010A2E0694AD
:1038F0005795479537952795BA95C9F7620F731F66
:10390000841F951FA01D0895DC01CB01FC01E199E6
:10391000FECF06C0FFBBEEBBE09A31960DB20D9212
:1039200041505040B8F70895DC01CB0103C02D9100
:103930000E949F1C41505040D0F70895262FE199D6
:10394000FECF9FBB8EBB2DBB0FB6F894E29AE19AD7
:103950000FBE01960895DB018F939F930E94DD1C9B
:10396000BF91AF91A29F800D911DA39F900DB29F1B
:10397000900D11240895A1E21A2EAA1BBB1BFD0174
:103980000DC0AA1FBB1FEE1FFF1FA217B307E4073E
:10399000F50720F0A21BB30BE40BF50B661F771F96
:1039A000881F991F1A9469F7609570958095909576
:1039B0009B01AC01BD01CF0108950E941F1DA59F71
:1039C000900DB49F900DA49F800D911D112408951A
:1039D0002F923F924F925F926F927F928F929F921F
:1039E000AF92BF92CF92DF92EF92FF920F931F930D
:1039F000CF93DF93CDB7DEB7CA1BDB0B0FB6F894BE
:103A0000DEBF0FBECDBF09942A88398848885F84FD
:103A10006E847D848C849B84AA84B984C884DF806E
:103A2000EE80FD800C811B81AA81B981CE0FD11D52
:103A30000FB6F894DEBF0FBECDBFED010895A29F73
:103A4000B001B39FC001A39F700D811D1124911D72
:103A5000B29F700D811D1124911D0895F894FFCF20
:103A600002500100010AD700DA00DD00E000E300A7
:103A7000E600E900EC00EF00F200F500F800FB00C2
:103A8000FE000101040107010A010D0110011301EB
:103A9000160173656300545558100029C0A8002111
:103AA0000A643B003A0066617669636F6E2E696353
:103AB0006F0047455420002F20002F6366672F00BA
:103AC000656970002E00636E00707400636D6400A1
:103AD000706E0061636D004336004337004137006C
:103AE000413600413500413400413300423000414D
:103AF0003000413100413200443300443400443549
:103B00000044360044370043300043310043320064
:0A3B10004333004334004335000046
:00000001FF
